:020000040000FA
:100000000C9437220C945F220C945F220C945F2294
:100010000C945F220C945F220C945F220C947A2340
:100020000C945F220C945F220C945F220C945F224C
:100030000C945F220C945F220C945F220C945F223C
:100040000C945F220C945F220C9450260C945F2237
:100050000C945F220C945F220C945F220C945F221C
:100060000C945F220C945F220000C094726070FDBB
:1000700030E4FE10EEFF00ECFC000000C094726063
:100080008AFC309AFE0CEEFF00ECFC000000C094ED
:100090007260B6FB308CFE0CE6FF00ECFC0000004A
:1000A000C0947260D8F93088FD0CCAFF00ECFC00E7
:1000B0000000C0A31C5465FD4046FF18F7FF00EB8D
:1000C000EC000000C00000C00000C00000C0000044
:1000D000C00000C00000C00000C00000C00000C0A0
:1000E0000000C00000C00000C00000C00000C00050
:1000F00000C00000C00000C00000C00000C0000040
:10010000C00000C00000C00000C00000C00000C06F
:100110000000C00000C00000C00000C00000C0001F
:1001200000C00000C00000C00000C00000C000000F
:10013000C00000C00000C00000C00000C00000C03F
:100140000000C00000C00000C00000C00000C000EF
:1001500000C00000C00000C00000C00000C00000DF
:10016000C00000C00000C00000C00000C00000C00F
:100170004A3948A0FE30B3F10832FE048AF8000084
:1001800000C046395056F730AA08358AF810FCFEF0
:10019000000000C0007F54CAFA3556F730CCFC107E
:1001A00070FE000000C094724866E335F8EC3060E1
:1001B000F30842FE000000C00000C00000C00000C4
:1001C000C00000C06E0B4856FE3ABBFF3862003CD0
:1001D00065FD000000C0BB0348CFFE3ADBFA107C8F
:1001E000F608B6C6000000C0B40448A0FE3AD7FF27
:1001F0003832003CABFB000000C0AC0528000132E7
:100200001F0036E1FF32DBFD000000C0A0002845E2
:10021000003EADFF36290040EDFE000000C00000AA
:10022000C00000C00000C00000C0250848DBFD344D
:10023000ACFE30E10134DBFA000000C07D0348BBB6
:10024000FC3486FD2EBF023BECFC000000C0000029
:10025000C00000C00000C00000C00000C04A395407
:1002600032FE3E3C0142E2F81092F4000000C04D24
:100270000E4841FD311F003241FD0819FD0000000C
:10028000C06E0B5041FD311F003241FD08B0F90036
:100290000000C00000C00000C00000C00000C0009E
:1002A00000C00000C00000C00000C00000C000008E
:1002B000C00000C00000C00000C00000C00000C0BE
:1002C0000000C00000C00000C00000C00000C0006E
:1002D00000C00000C0008100B30008B30010B300EC
:1002E0003092F4000000C00000C00000C00000C058
:1002F0000000C00000C00000C00000C00000C0003E
:1003000000C00000C00000C00000C00000C000002D
:10031000C00000C0007F7FCAFF7ED6D94008FD1014
:100320006EFF000000C024E96060F330B6FB1812D5
:10033000FE08AEFF000000C0007F6060F320CAFA34
:1003400010ACFC0812FF000000C0A31C445DE310C9
:100350006E0B20E2F80A4DFF000000C0151340B3F9
:10036000F1101513204CFB0CB8FE000000C000007B
:10037000C00000C00000C00000C00000C00000C0FD
:100380000000C00000C00000C00000C00000C0A00D
:10039000006454FA3056FE1072FF08EEFF000000B1
:1003A000C09400607CF6304CFB1032FE089EFF00CB
:1003B0000000C00000C00000C00000C00000C0007D
:1003C00000C00000C00000C00000C00000C000006D
:1003D000C00000C00000C00000C00000C00000C09D
:1003E0000000C00000C00000C00000C00000C0004D
:1003F00000C00000C00000C00000C00000C000003D
:10040000C00000C00000C00000C00000C00000C06C
:100410000000C00000C00000C00000C00000C0001C
:1004200000C00000C00000C00000C00000C000000C
:10043000C00000C00000C00000C04639220000C05B
:100440002A26400000C0007F000081000000C03666
:1004500000200000000000C0947248B6FB3F007FFF
:10046000410000C0007F4200813E0000C0007F408C
:100470000000C0007F3F007F410000C05DE3435D9E
:10048000E33D0000C0540140DAFE300000C0A31C70
:10049000400000C08409400000C00D021000FF0FA2
:1004A0000000C06E0B4183FF3F0000C025024038B2
:1004B000FF209A00300000C0250240BBFF3DC8006D
:1004C000400000C015137F60FF78AD007F0000C0C2
:1004D0007A027F86FD000000C0AA010DDBFD00004E
:1004E00000C00000C00000C00000C00000C000004C
:1004F000C00000C00000C00000C00000C00000C07C
:100500000000C00000C00000C00000C031017F0931
:10051000FF600000C01F0002DCFF000000C0000000
:10052000C00000C00000C00000C00000C00000C04B
:100530000000C00000C00000C00000C00000C000FB
:1005400000C00000C00000C025084665FD3C310128
:10055000400000C00000C00000C00000C00000C09B
:100560000000C00000C00000C00000C00000C000CB
:1005700000C00000C0007F4300813D0000C0007F3C
:100580004200813E0000C0007F4100813F0000C06A
:100590000000C00000C00000C00000C00000C0009B
:1005A00000C00000C00000C00000C00000C000008B
:1005B000C00000C00000C00000C00000C00000C0BB
:1005C0000000C00000C00000C00000C00000C0006B
:1005D00000C00000C00000C00000C00000C000005B
:1005E000C00000C00000C00000C00000C00000C08B
:1005F0000000C00000C00000C00000C00000C0003B
:1006000000C00000C00000C00000C00000C000002A
:10061000C00000C00000C00000C00000C00000C05A
:100620000000C00000C00000C00000C00000C0000A
:1006300000C00000C00000C00000C00000C00000FA
:10064000C00000C00000C00000C00000C00000C02A
:100650000000C00000C00000C00000C00000C000DA
:1006600000C00000C00000C00000C00000C00000CA
:10067000C00000C00000C00000C00000C00000C0FA
:100680000000C00000C00000C00000C00000C000AA
:1006900000C00000C00000C00000C00000C000009A
:1006A000C00000C00000C00000C00000C00000C0CA
:1006B0000000C00000C00000C00000C00000C0007A
:1006C00000C00000C00000C00000C00000C000006A
:1006D000C00000C00000C00000C00000C00000C09A
:1006E0000000C00000C00000C00000C00000C0004A
:1006F00000C00000C00000C00000C00000C000003A
:10070000C00000C00000C00000C00000C00000C069
:100710000000C00000C00000C00000C00000C00019
:1007200000C00000C00000C00000C00000C0000009
:10073000C00000C00000C00000C00000C00000C039
:100740000000C00000C00000C00000C00000C000E9
:1007500000C00000C00000C00000C00000C00000D9
:10076000C00000C00000C00000C00000C00000C009
:100770000000C00000C00000C00000C00000C000B9
:1007800000C00000C00000C00000C00000C00000A9
:10079000C00000C00000C00000C00000C00000C0D9
:1007A0000000C00000C00000C00000C00000C00089
:1007B00000C00000C00000C00000C00000C0000079
:1007C000C00000C00000C00000C00000C00000C0A9
:1007D0000000C00000C00000C00000C00000C00059
:1007E00000C00000C00000C00000C00000C0000049
:1007F000C00000C00000C00000C00000C00000C079
:100800000000C00000C00000C00000C00000C00028
:1008100000C00000C00000C00000C00000C0000018
:10082000C00000C00000C00000C00000C00000C048
:100830000000C00000C00000C00000C00000C000F8
:1008400000C00000C00000C00000C00000C00000E8
:10085000C00000C00000C00000C00000C00000C018
:100860000000C00000C00000C00000C00000C000C8
:1008700000C00000C00000C00000C00000C00000B8
:10088000C00000C00000C00000C00000C00000C0E8
:100890000000C00000C00000C00000C00000C00098
:1008A00000C00000C00000C00000C00000C0000088
:1008B000C00000C00000C00000C00000C00000C0B8
:1008C0000000C00000C00000C00000C00000C00068
:1008D00000C00000C00000C00000C00000C0000058
:1008E000C00000C00000C00000C00000C00000C088
:1008F0000000C00000C00000C00000C00000C00038
:1009000000C00000C00000C00000C00000C0000027
:10091000C00000C00000C00000C00000C00000C057
:100920000000C00000C00000C00000C00000C00007
:1009300000C00000C00000C00000C00000C00000F7
:10094000C00000C00000C00000C00000C00000C027
:100950000000C00000C00000C00000C00000C000D7
:1009600000C00000C00000C00000C00000C00000C7
:10097000C00000C00000C00000C00000C00000C0F7
:100980000000C00000C00000C00000C00000C000A7
:1009900000C00000C00000C00000C00000C0000097
:1009A000C00000C00000C00000C00000C00000C0C7
:1009B0000000C00000C00000C00000C00000C00077
:1009C00000C00000C00000C00000C00000C0000067
:1009D000C00000C00000C00000C00000C00000C097
:1009E0000000C00000C00000C00000C00000C00047
:1009F00000C00000C00000C00000C00000C0000037
:100A0000C00000C00000C00000C00000C00000C066
:100A10000000C00000C00000C00000C00000C00016
:100A200000C00000C00000C00000C00000C0000006
:100A3000C00000C00000C00000C00000C00000C036
:100A40000000C00000C00000C00000C00000C000E6
:100A500000C00000C00000C00000C00000C00000D6
:100A6000C00000C00000C00000C00000C00000C006
:100A70000000C00000C00000C00000C00000C000B6
:100A800000C00000C00000C00000C00000C00000A6
:100A9000C00000C00000C00000C00000C00000C0D6
:100AA0000000C00000C00000C00000C00000C00086
:100AB00000C00000C00000C00000C00000C0000076
:100AC000C00000C00000C00000C00000C00000C0A6
:100AD0000000C00000C00000C00000C00000C00056
:100AE00000C00000C00000C00000C00000C0000046
:100AF000C00000C00000C00000C00000C00000C076
:100B00000000C00000C00000C00000C00000C00025
:100B100000C00000C00000C00000C00000C0000015
:100B2000C00000C00000C00000C00000C00000C045
:100B30000000C00000C00000C00000C00000C000F5
:100B400000C00000C00000C00000C00000C00000E5
:100B5000C00000C00000C00000C00000C00000C015
:100B60000000C00000C00000C00000C00000C000C5
:100B700000C00000C00000C00000C00000C00000B5
:100B8000C00000C00000C00000C00000C00000C0E5
:100B90000000C00000C00000C00000C00000C00095
:100BA00000C00000C00000C00000C00000C0000085
:100BB000C00000C00000C00000C00000C00000C0B5
:100BC0000000C00000C00000C00000C00000C00065
:100BD00000C00000C00000C00000C00000C0000055
:100BE000C00000C00000C00000C00000C00000C085
:100BF0000000C00000C00000C00000C00000C00035
:100C000000C00000C00000C00000C00000C0000024
:100C1000C00000C00000C00000C00000C00000C054
:100C20000000C00000C00000C00000C00000C00004
:100C300000C00000C00000C00000C00000C00000F4
:100C4000C00000C00000C00000C00000C00000C024
:100C50000000C00000C00000C00000C00000C000D4
:100C600000C00000C00000C00000C00000C00000C4
:100C7000C00000C00000C00000C00000C00000C0F4
:100C80000000C00000C00000C00000C00000C000A4
:100C900000C00000C00000C00000C00000C0000094
:100CA000C00000C00000C00000C00000C00000C0C4
:100CB0000000C00000C00000C00000C00000C00074
:100CC00000C00000C00000C00000C00000C0000064
:100CD000C00000C00000C00000C00000C00000C094
:100CE0000000C00000C00000C00000C00000C00044
:100CF00000C00000C00000C00000C00000C0000034
:100D0000C00000C00000C00000C00000C00000C063
:100D10000000C00000C00000C00000C00000C00013
:100D200000C00000C00000C00000C00000C0000003
:100D3000C00000C00000C00000C00000C00000C033
:100D40000000C00000C00000C00000C00000C000E3
:100D500000C00000C00000C00000C00000C00000D3
:100D6000C00000C00000C00000C00000C00000C003
:100D70000000C00000C00000C00000C00000C000B3
:100D800000C00000C00000C00000C00000C00000A3
:100D9000C00000C00000C00000C00000C00000C0D3
:100DA0000000C00000C00000C00000C00000C00083
:100DB00000C00000C00000C00000C00000C0000073
:100DC000C00000C00000C00000C00000C00000C0A3
:100DD0000000C00000C00000C00000C00000C00053
:100DE00000C00000C00000C00000C00000C0000043
:100DF000C00000C00000C00000C00000C00000C073
:100E00000000C00000C00000C00000C00000C00022
:100E100000C00000C00000C00000C00000C0000012
:100E2000C00000C00000C00000C00000C00000C042
:100E30000000C00000C00000C00000C00000C000F2
:100E400000C00000C00000C00000C00000C00000E2
:100E5000C00000C00000C00000C00000C00000C012
:100E60000000C00000C00000C00000C00000C000C2
:100E700000C00000C00000C00000C00000C00000B2
:100E8000C00000C00000C00000C00000C00000C0E2
:100E90000000C00000C00000C00000C00000C00092
:100EA00000C00000C00000C00000C00000C0000082
:100EB000C00000C00000C00000C00000C00000C0B2
:100EC0000000C00000C00000C00000C00000C00062
:100ED00000C00000C00000C00000C00000C0000052
:100EE000C00000C00000C00000C00000C00000C082
:100EF0000000C00000C00000C00000C00000C00032
:100F000000C00000C00000C00000C00000C0000021
:100F1000C00000C00000C00000C00000C00000C051
:100F20000000C00000C00000C00000C00000C00001
:100F300000C00000C00000C00000C00000C00000F1
:100F4000C00000C00000C00000C00000C00000C021
:100F50000000C00000C00000C00000C00000C000D1
:100F600000C00000C00000C00000C00000C00000C1
:100F7000C00000C00000C00000C00000C00000C0F1
:100F80000000C00000C00000C00000C00000C000A1
:100F900000C00000C00000C00000C00000C0000091
:100FA000C00000C00000C00000C00000C00000C0C1
:100FB0000000C00000C00000C00000C00000C00071
:100FC00000C00000C00000C00000C00000C0000061
:100FD000C00000C00000C00000C00000C00000C091
:100FE0000000C00000C00000C00000C00000C00041
:100FF00000C00000C00000C00000C00000C0000031
:10100000C00000C00000C00000C00000C00000C060
:101010000000C00000C00000C00000C00000C00010
:1010200000C00000C00000C00000C00000C0150BE0
:10103000070B131911FDF9FB0101FFFBF9F7EFE7AE
:10104000E5DCD4CCC6BEB8AA8F8781838B89898F13
:101050009BC4D2D0BEB8AA8F8781838B89898F9B8E
:10106000C4D2D0CAC6C8C8CACED4D4D8E1DEFF26FE
:1010700040545F52403E404650696B61585456544C
:101080004A444444525C636B675852483C323234A1
:101090003232323234322A2A323632302C2C201F6D
:1010A00028303C4C4C403C3A3A36221D1F22252D1C
:1010B0002310FFFBFDF9F3F5F6F5F6F3EBE7E7DEBA
:1010C000CABAB1ACB1BCC2BEBCC3C7C8D2DEDBD3E6
:1010D000D8E4EBEBE8DDCECFDCE5E3DAD1D0E60B0C
:1010E0001D1B191D1E1F242820171C252724E5C899
:1010F000B1A2948B898D99AABED0E1EBEDEBE7E329
:10110000E2E3E3E3E2E3E6EDF601080B0A02F4E5CD
:10111000D6C9C2C0C5CFDDE9F3F8F6F1EBE8E9F3D3
:10112000061A2C3A3E372A1A0BFEFBFC01FEEDF0A4
:10113000F2F2F0ECEBE9E6DFD6C9BBAA9A8B82812A
:101140008693A5B7C8D4D9DCDCE0E7F2010C14140F
:101150000BFAE8D8CDC6C4C6C9CBCCCCCAC8C4C06B
:10116000C0C4C9CED0D1CEC9C2BEBFC4CFDD0C0968
:101170000C0F0F0C090C14191F2429394252575C0B
:101180005F626A6C6A67676A6C727477777A7C7F71
:101190007C7A6F6A5C574F4C4A4A4A47443F3F3F0C
:1011A0003C312C241C17080806050400FCFBFBF846
:1011B000F2F1E4E4E1E1DFDFD9D7CCC9C4B9B4ACE2
:1011C000ACAEB1B6B9B9C1C7D7DCE1E4E7F4F7F921
:1011D000F9FC010401FFF7F4F1F1E9E7E4E7ECF4CD
:1011E000F4EFECE9E9E7E4DFD4D2D1D0CDCCBFBE57
:1011F000BABBBCBBB8B2AEADABA59E999695918D6E
:10120000888281868B8D8D8C8B8A8B888482848A60
:101210009294959B9FA8ADB1B4B7C0CAD5DADFE46C
:10122000E6E6E4E4E5EBEFF1F3F4F6F8F9F601FFB6
:10123000010409090707090F141F24293134342F29
:10124000211C17171714111417191C191C1C212401
:101250001C191717171411070707090909090C0F9B
:1012600011110F0F14191C1C191515151310D6C8C0
:10127000B8A6968A838182868A8E9296999C9EA031
:10128000A3A6A9ACAEB1B4B6B9BCBFC1C4C7C8CBE4
:10129000CDD0D3D4D7DADFE2E3E6E9EAECEFF2F53A
:1012A000F6F8FBFE010405080B0D101113141619B6
:1012B0001A1D20232426272A2C2D2F323536383B81
:1012C0003E414446484B4E5255595E63676B7075BC
:1012D000797D7E7F7E7B776F64554636230EFAE9F3
:1012E000DACCBFB5AEAAA6A3A2A0A0A1A2A2A2A238
:1012F000A2A2A2A2A2A2A3A3A3A5A6A6A7A8A9ABA5
:10130000ADAFB1B2B4B5B6B6B8B9BCBEBFC2C4C752
:10131000C8CACDD0D3D4D7DCDFE3E5E9EDF2F6F9E6
:10132000FE040A10141A21272C32383E4345484A3D
:10133000484440382C1E0F00EFDCC9BAAEA3999385
:101340008E8C8B8A8A8A8A8B8C8D8F9194969797B4
:101350009A9C9DA0A2A3A6A9ABACAFB2B5B7B9BCED
:10136000C0C3C5C8CDD0D3D4D7DCDFE0E0DCFA03FE
:101370000B11131B2630363534312E2A26211E162A
:101380000900FCFDFE030B121920253345555F6251
:10139000615E58544F48453D332B27282931393F4A
:1013A000454A4D5662707A7E7F7F7D7B78736B688D
:1013B0005C4D423C3939373534363C3F4B5A656BCE
:1013C0006C6C6A66625D56524635261B15130F0B10
:1013D000090A0E111C2C3A424647494947443E3BF4
:1013E0003020100600FEFBF7F1EDEEEFF5FF080EE2
:1013F0000F0F0F121416150E0BFFEEDFD2C9C5BC6E
:10140000AFA7A3A4A5ACB7C1C9CED0D4D8DDDBD7D4
:10141000D4C9BBAFA69F9D968D868284868D98A0E9
:10142000A6ABADB3BBC5CCCFCEC8BDB3ACA6A19E59
:10143000968D86828182878D94999FA1A9B5BEC21F
:10144000C3C3C0BCB9B5AFACA29488828182878F78
:1014500098A0A7AAB6C7D7E2E6E6E5E2E0DEDEDDC1
:10146000DAD5CECAC9C9CCD1D4D8DDE0E9F5FB01C3
:1014700003070A0A0A070402020305070B141C20CB
:101480002931383A3D3E3E3C393735333437383EE2
:1014900044474F595E60636463615D5B5A59585AB3
:1014A0005B5F656B6D7276787A797876726C686757
:1014B00064636365696E70757B7D7F7E7B79746C18
:1014C00065635E5B5A5A5C5F6064656565615B5924
:1014D000524942403A353232333537393C3F3F3E4C
:1014E0003A35332A221F170F0A09070709090C0C7E
:1014F0000C0A0600FDF4EAE1DED9D5D3D1D1D2D36E
:10150000D5D6D6D6D3D0CEC9C1BAB8B3AEABABABB5
:10151000ADAEB1B3B4B4B2ADA7A59D95938E898796
:1015200087898E9293979A9B9B9A9796928C88869E
:1015300083818181848A8C92989A9DA09F9E9B979B
:1015400093928E8C8C8E949B9DA4AEB5B6B9BBBB8A
:10155000BBB9B6B6B4B3B5B7BBC0C2C8D0D6D8DD78
:10156000E2E4E4E2E1E1DFDEDFE0E4ECF5F7F7FB03
:10157000050B14191E2124252828252523211F1D8C
:101580001B1B19191B1B1D1D1F1F2123252525256D
:10159000252323211F1F1D1B1B1B1D1F2123282D3E
:1015A000333941474E545D62686C7075797B7D7F3D
:1015B0007F7F7F7F7D7D7B7B7B7979797979797975
:1015C0007775736E6B66625C564E483F3A352F2ACC
:1015D00024201C1917171719191B1D202224252830
:1015E0002828252525232321211F1F1F1F1F1F21D9
:1015F0002121232323232321201D19160F0A02FB57
:10160000F2EAE0D8CFC8C3BAB6B0ADA9A6A2A09EF0
:101610009C9C9A98969492908D8B898784838181E3
:10162000818183878A90949A9EA2A6ABAEAFB1B314
:10163000B3B3B1B1AFABA9A4A29F9D9B9A98989860
:1016400098989A9A9C9C9C9C9C9A98969492908B21
:10165000898787858587878A8F93989DA4AAB2B941
:10166000C2C8CFD4D8DFE3E7E9EDEFF1F4F71418FF
:101670001E252D36414A53595C5C5A554D433B3229
:10168000281D1106FAF0E6DFDAD4CFCAC7C5C2C0FA
:10169000C0C2C7CDD6DEE5EBEFF0EFECE9E5E3E065
:1016A000DCD7D1C9C0B6ABA29B948F8A88868686C8
:1016B000888A8D8F93959695938F8A868381818171
:1016C000838586858382838589919BA6B2BDC6CD9D
:1016D000D6DDE4EAF1F6FD01030606030301FFFC93
:1016E000F6F0E9E2DAD5D3D4D7DDE6F0F9020A1252
:1016F0001C26323F4D5B6872787D7F7F7C76716CF3
:101700006560585149423D393735343232323234CE
:10171000373C434C56626C73787D7F7F7D7D7D7B4B
:101720007A78736D655D544C453E393532303030D2
:10173000303133353839393735302B241F1C1B1BDA
:101740001B191816110F0D0C0D1118212931373BDB
:101750004043474A4E5053555553504C47423E38EC
:1017600030271C1308FFF9F5F4F6FA00070E43487A
:101770004F565E656D73787D7F7F7C767068604EB6
:101780003311ECCAB19F948B8481818386888A8DC2
:10179000909295989C9FA4AAB1B9C0C8CED2D7D92F
:1017A000D5CFCBCACCD1D5DBE1E7EBEDECEAE9E66E
:1017B000E6E9EFF5F9FF050A1014191D1F2324218E
:1017C000190E02FAF5F2EFEDECECEDF0F2F3F2F0B7
:1017D000EDEAE7E6E7E7E6E4E0DBD8D8D9DDDFDDF0
:1017E000D7CFCAC8CACED4DAE0E7EEF4FB01070EC1
:1017F000161C20262C32373D4146484C4F51524F43
:101800004333221000F5EEEAE9EAECF0F6FC040BB3
:1018100012181F262E353B43494E53585C616361B5
:101820005B554C423B352F2924201C17110A02FC22
:10183000F9F8FAFE02070D13171C2025292E302F68
:101840002A20160C070504040405070B11171D2197
:10185000262B31353A3C3B38342E292727292A2894
:101860002219110C0D1014181D22282E353BEC00E6
:10187000112E495A626A72787D7F7F7C7A787675FC
:101880007372706D6B6A686767646260605E5C5BF0
:101890005A5857565553525150504E4C4B4A49473F
:1018A00047454444434140403F3E3E3B33281C01B2
:1018B000E4D4C0B1AAA0948C878381818486878771
:1018C000898B8B8D8F909092939496979798999AF5
:1018D0009B9C9D9D9FA0A1A1A2A3A4A5A6A6A7A8ED
:1018E000A9A9AAABABACADAEAEAFB0B0B0B2B3B31A
:1018F000B3B4B4B5B6B6B7B7B8B8B9B9B9BBBBBC71
:10190000BCBCBDBDBDBFBFBFC0C0C0C1C1C1C2C2E4
:10191000C4C4C4C5C5C5C5C5C6C6C8C8C8C8C8C965
:10192000C9CACACACCD0DCF5122643585E5B504403
:101930002D1506FFF8F0E9DDD1C8C5C2C0C0C1C28F
:10194000C2C2C4C4C4C5C5C5C6C6C8C8C8C9C9C939
:10195000CACACACACBCBCBCDCDCDCDCECECECECEC4
:10196000CFCFCFCFD1D1D1D1D2D2D2D6DCE1ED0001
:10197000192E404E5656534B423A342C2828292CC7
:10198000343A424A4F555B5E6266696965625E5AE7
:1019900057524D47403930251D1409FDF1E7E3DC6E
:1019A000DADAD7D7D4CEC9C1B9ADA09991878381EE
:1019B0008487909DAEBECBD8E4EDF3F7FCFF03091E
:1019C0000D161F282D353A3D43484B4F53585E6046
:1019D000626465696C6D6E7072787B7D7F7F7E7BE3
:1019E00078716961584E433A2B1D0F04FDEFBEC15B
:1019F000C6C9CACDD2D6D9DFE2E3E7EDF1F5FBFEE9
:101A00000003080C10161A1E2428292C3235393EE2
:101A10004142454B4E515557575A5F626468696958
:101A20006B6F717275767677797A7A7D7D7D7F7F3F
:101A30007F7F7F7F7F7D7D7D7D7B7B7B78787877E7
:101A40007372716E6D6D6B6866645F5D5D5B57563A
:101A5000534F4D4D4A4542403B3936312E2E2B26B1
:101A600023211C1A1A17120F0C0805050300F3EDA9
:101A7000E7E2DBD3CDC5BFB8B3AFAAA7A3A09B97BE
:101A8000948F8B87858281818384878A8F93969AAE
:101A90009EA4A8AEB3B8BEC3CBD2DAE0E5EBEFF4B8
:101AA000F8FCFE000406080A0A0C0C0C0C0A0A08D2
:101AB0000705040200FEFAF8F6F4F2F0EEEAE8E6B2
:101AC000E4E2E0DEDCDAD8D8D6D4D4D4D2D2D2D094
:101AD000D0D0D2D2D2D2D4D4D4D6D8DADADCDCDEAA
:101AE000E0E2E4E6E8EAECEEF0F3F4F6F8FAFE0001
:101AF000020406080A0C0E1012121416181A1C1CE6
:101B00001E2020222224242426262828282828288B
:101B10002828282A2A2A2A2A2A2A2A2A2A2C2C2E23
:101B20002E303032343436383A3C3E404143454919
:101B30004B4F515255575B5D61636567696D6F73BC
:101B4000757678797B7B7D7D7D7F7F7F7F7D7D7BDB
:101B500079777573716F6D6966615D5753504A4649
:101B6000403C36322E28231C160F0A05FFF9F4F0EC
:101B7000EEE8E0DED6CDC5C3BBB6B4AFA69E9A9262
:101B80008A8783818182858A8C9094959596979790
:101B90009A9DA1A3A9AEB0B7C1CCD0DDE8ECF6FF09
:101BA00007090E13151B2024262A2D2E323638380D
:101BB000373534302C2928252222212122222326A0
:101BC00026282B2B2B2824221D181514110E0C0649
:101BD000FDF6F4EFECECEBEDF1F3F8FCFDFEFDFAB5
:101BE000F8F5F3F2EFECE9E9E8E8EAEAEDEF1E23B5
:101BF0002933383A3A362C271D19191D252A313830
:101C000038332E2019141214191D202222222020CC
:101C10002022232325231E190D0A06080D12162241
:101C2000272A291E160DFFFCFF041923363C3D3AD6
:101C3000352A272223253138434649494F525457E4
:101C4000595B5C5E5C5B54505257636A75787C7F6D
:101C50007D736C605C595657595B5E5E59565041B6
:101C60003A2519081206F6F1E9E5E2E3E7E7E5DBD4
:101C7000D4C6BFB3ACA5999694949494929294923E
:101C8000918A888383818183868688888B8F929BC3
:101C90009D9EA0A9AEB3B7B5B1B1B8BDC1BFBFC11C
:101CA000C3CACDCDCDCDD0D4D9D9DBDBDDDEE2E5E5
:101CB000E7E9E9E9ECEEF5F8F8F6F5F6FDFF0101E4
:101CC0000101010606080A0A0F121414100F0D1064
:101CD000141B1D1E1D1D1B1B1D1E22232727272312
:101CE000221D1D20252A3133333029251E1E274071
:101CF0004957626971777D7F7D786F6454413426DE
:101D00001E18181C232E3842484A49484645474762
:101D1000494D52585B5B58524B42392E27201B18B5
:101D2000130F0C0D1722333D474B4B4A4837F7F63C
:101D3000F8FB020E1A23324451565B5F60605F5B12
:101D400057534B3D30261503F7F5F9081824334552
:101D50004F53575858595B5D6061636362625F59C6
:101D600054514B443E3A342B241E17120E0D0F12C1
:101D700017191B1E21232B3A4A5564737B7E7F7DE6
:101D80007A767067605C5A58585856514B453E3BBE
:101D90003D4451616D727676726D5E48332514064E
:101DA0000101050A0D0D10151C23314350565958D9
:101DB000524A39210CFEEBD9CCC5B9A99B948A8330
:101DC00081828896A7B5CDE8FB030402FCFAFC04E7
:101DD0000D13191D1C1606EBD1C2AE9F99989CA439
:101DE000AAAFB6BDC1C3C7CCD2D6DEE6EEF5F4F2DB
:101DF000EFEEE9E5E3E4E9F2FBFE0505FEF9E3C4F5
:101E0000A69D8D83838692AAC3CCE3F3F3EED8B963
:101E1000A0998C858586898D90919191929398A1B6
:101E2000ADB1BCC5C7C6BEB5B0B0B7C9E2EA4AF8E5
:101E3000EF4A3C2861080F3EFEB2B911F5C804E331
:101E40000FC4B72B2AFA0E1944F9F7271F3C1FBFFE
:101E5000F4CEAD0121FFF9F39637BFE117F5FF008E
:101E6000D8171FE9CACF2EF9362606D302CBEBE0EE
:101E7000120DC781F6F8F70DBE9927131E0ED9C4AF
:101E8000E7FC09D30015DDCB01DD0304FAC0C2363F
:101E9000074109E1EF2DF9BFFAE3E4CCE72FF30E98
:101EA0006E19CDF128DF0A40BAD63C211E0B2D0950
:101EB000DFDEB7FF239DFFC2E535F714442E02DEB7
:101EC0003D3CEB2322CFC4FC2412D4B5EAD5DEDEA0
:101ED000CCF831F3150C0001EC44E3E0273CB7DF0C
:101EE000E59ECF020F21DDB6E414E907D42A1117CD
:101EF000CFC112419DDA1FF1C8BE2320E70BE3FCDE
:101F00007FFABAC7E7F6E73F0CCD0C33361D1992BE
:101F1000C7081411AF22FFD1BA060D4355DDD159C0
:101F200003D2FD16BC3F2708C7394CAEC0AD0B0825
:101F3000F2EA1021FBFB2A1DD2CB286013BEE62655
:101F400012073013C3CC1735292105D0CC26640ED7
:101F5000ABEE5116C81257F28FF17C4ACDDE22F457
:101F6000BD1A7C30AEC3241FEA165107AFF24E1BD8
:101F7000DE0814DAF25651DBA3EE3C250B2901A54D
:101F8000D456510AFFE6C1F13F4E21D4B5F43335A2
:101F90002A14E2CFF01F391FF0EAFB031B2AFDDBF6
:101FA000F5101D2D1DE7D4FC1B191A1EFDD7E714D3
:101FB000312E03D2E519262212D8D4252EF1164E41
:101FC000E78FF55E33030CE2B40B7F4AB6A60C3004
:101FD0000519470EB5D42D370F00FCE7E71D512C2E
:101FE000D0BEFB19162C3500C8D71A3F16DFF938BA
:101FF00010B4E67051AAA0376B13CCDA1024FC0C95
:102000005D2581A36878E6DE3F129BD47761B9AE87
:102010003738CDF9691682CD7A59C8D4370CB2FD5C
:102020007E3CA3C14A31C1F05A17A5F1784000EEB9
:10203000E70D40491FF3EF0300E7DEFD292AF8BF53
:10204000AABEEB11231CF8CAC2EE20261529596A34
:10205000523E3B1ED38E81B4FF31423A17DEAA9A1C
:10206000B4E1071E304B5F4F2914171907F0E5DD67
:10207000C9B1B0DA1F565F33F2BEA6ABCF0D4F74B5
:102080006F5229FDD4C6E00A20201E1B08E2C1C100
:10209000DEFD06F5E1DAE0F51F577F7C5010D6AD86
:1020A0009CB2EF37604E11D3B0A9BBE10E3140387E
:1020B0001FF6D8DDFF263B3A2501E2DBF61C312D69
:1020C00010DEA48189B8F833606E561FE4C2C9F5EA
:1020D0002D55553608DEC8CAE503141406EED6D0D1
:1020E000E40623332D0DE0C2C6E91845676D501C88
:1020F000E8C8C2D1EE08140BF5DDD3E1FD192C2F91
:10210000200BFCFA081E303320FFDBC3C1D7FC23B1
:1021100038362004ECE0E1EEFC080D0801FD010E6C
:102120001B23221704F2E7E8F2010E120DFF01F360
:10213000F3F4F0FDF1E4E6EDD6DCDFDCD0CBC1CF8B
:10214000CEB5B5B1AFBB9DB3AE9AA0939697968727
:1021500082868D818385848E85818886838296910F
:10216000A3AAA9ACBBCEC7C4D8DFDCE9E9EB070D55
:1021700015202730393E444A4E53585B5F626467EE
:102180006A6B6E70727475767779797A7B7C7C7DF8
:102190007D7E7E7E7E7F7F7F7F7E7E7E7E7E7D7D5E
:1021A0007C7C7B7B7A7A79787776757574737270BC
:1021B0006E6D6C6B6A686766646362605F5D5C5AD3
:1021C00059575453514F4E4C4A49474543413F3E5E
:1021D0003C39373533312F2D2B29272523211F1D3E
:1021E00019181513110F0C0B08050401FDFBF9F666
:1021F000F4F1EEEDEAE7E5E1DEDCD9D6D4D1CECDDF
:10220000CAC6C4C1BEBCBAB7B5B3B0AEACA8A7A469
:10221000A2A09E9C9B9997959392918E8C8C8A8973
:10222000888786858484838382828281818181817B
:102230008282828383848586868788898B8C8D9031
:1022400091939496989A9C9DA0A2A4A6A9ACAEB195
:10225000B3B6B9BBBEC1C3C6CACCCFD2D4D7DADC01
:10226000DFE2E5E8EBEDF0F3F5F8FBFDFF00FF0042
:1022700001010304060B0D0F14171B1D1E22242839
:102280002A2C2F313235373B3C3E414344484A4E9D
:102290004F505355595B5D60626366686B6C6D703F
:1022A000727475757878787A7A7C7C7C7D7D7F7F96
:1022B0007F7D7D7D7C7B7978777473716D6A6562D3
:1022C0005F59534C48433D3832292118120B02F90B
:1022D000F0EAE6DFDBD7D0CBC6C3C2C0BFBFBDBD0F
:1022E000BFBFC0C3C5C9CACBCFD0D1D5D6D9D9DA23
:1022F000DCDDDBDBDAD8D7D6D3D0CCCAC8C3BFBAD3
:10230000B7B3AEAAA7A29E999795918F8D8987841E
:102310008383818181818184848587898D8F929750
:102320009BA0A2A4A7A9ABAFB2B6B8BABFC2C6C899
:10233000C8CBCBCCCFD1D5D7D9DCDEDFE1E2E2E22E
:10234000E2E3E3E5E5E5E2E2E1DFDEDBDBDBD9D991
:10235000D6D6D5D3D2D1CECDCBCBCBCBCBCBCBCB93
:10236000CDCDCED1D4D9DBDEE3E8EEF4F9FD010723
:102370000D161F2A343F4851585D64696D72757897
:10238000797C7E7E7F7F7F7F7E7C7B7873706C67BD
:10239000635D58524C48433D37312B251F1C1612A4
:1023A0000C070300FDF9F6F1EEEDEAE8E7E5E4E2FB
:1023B000E1DFDFDEDEDEDEDEDEDEDEDEDEDEDFDF36
:1023C000DFE1E1E2E4E4E5E5E5E7E7E8EAEBEDEDAE
:1023D000EEEEEEF0F0F1F1F1F3F3F4F6F6F6F7F7D6
:1023E000F6F6F6F4F4F4F4F4F6F6F7F7F7F7F7F791
:1023F000F7F6F6F6F4F4F4F4F4F6F6F4F4F4F3F392
:10240000F1F0EEEDEBEAEAEAEAEAEAEAEBEBEAEA15
:10241000EAE8E7E7E5E5E4E4E2E1E1DFDCDCDBD99B
:10242000D8D6D6D6D6D8D8D9DBDCDEDEDEDFDFDE06
:10243000DEDCDCDBD9D9D8D6D5D3D2CFCDCAC7C460
:10244000C2BEBBB7B4AFACA9A5A29D9A9693908E1D
:102450008B88878584828282828181818182828445
:1024600085888B909499A0A8B2BFCDDDECF8070EBB
:1024700015191A1A202A384858656D717373716CD2
:102480006665686C7073767A7D7E7B787572706B2A
:10249000645B55514D47413D3E4048525958524763
:1024A0003B312A27251E10F9DEC7BBBABFC6CBCDEC
:1024B000CDCCCBD2DDE9EEF6F8F4EEE7E0DCDDE4FE
:1024C000EFF8FCFBF6EFE5D6C1AB988C8585898FDC
:1024D0009393918B8481838B95A2ACB4BAC2CFDFE6
:1024E000F0010D100B040001060C0F100E0C0C0C6B
:1024F0000C0E11110E0C0905FEF4E8DDD3CFD2DC71
:10250000EC011526313737332D2A2C2D333A3D3A3D
:102510003327190D09111E282B241706F4EAECFAAB
:102520000E23333E454749494A4A4A443827140353
:10253000F7EFE9E1D7CFCED6E3EEF3F1EAE1DBD86E
:10254000D9D9D8D7D6D3D3D9E8001D3C586B7475E8
:1025500076787B7E7F7C746753381D09FEFBFAF921
:10256000F8F3ECE7E5E6EAEEEFEFF1F6FC00F0EC6D
:10257000E9E7E3DDD6CDC4BEB6ACA1948A848181FF
:102580008283858A939BA2A8AEB5BABEC5CDD4DCA2
:10259000E2EAF1F8FE0206080D0F13191F222426A5
:1025A00026262626282A29251E1407FDF6F4F6FCE1
:1025B000040E15191C1E22262C3134333029201507
:1025C0000AFDF3ECE7E2E0DEDAD5CFCCCCCFD4D90C
:1025D000DDDEDDDAD4CECBCBCED4DBE0E4E9EDF149
:1025E000F4FA020D19242D3740464E57616769678A
:1025F000615A54514F5052505053575E656967604D
:1026000055483E352E2926252628282A2E33383EA1
:10261000464E575F666B7074797D7F7F7C797776E5
:102620007677797977736F6C6A686767696C7070B1
:102630006D6A68635D574E46403C3C3D3E3D3830D8
:10264000251A120E0D0C0802FAF1E7E0DBD9DADDEB
:10265000E2E6E9EBEDEFF1F1EFEBE5DED6D0CDCD43
:10266000CBC9C9C9CBCFD2D6D8D9DDE4ECF26365EA
:102670006767666664625F5B595552504D4B4946C9
:102680004442413F3D3A38363332302F2F2F2F2FDF
:102690002E2E2C2826221F1B1A191B1E22272D34F2
:1026A0003A3F42444748494B4C4D4D4D4D4D4D4DA1
:1026B0004D4D4D4D4E4F5051525354555453514E14
:1026C0004C4B4A4A4A4A4B4C4E5051535558595A12
:1026D00059585553514B4945413F3C3B39383736A2
:1026E000373738393A3B3C3E3E3F3F404142424219
:1026F00042424242424243474A4F555A6065686AE5
:102700006B6A6968666462615E5C5A575552504FE5
:102710004D4B494644403C3835302C251F17100797
:10272000FDEFE4D6C0AF9B8E84818793ADCAF312D0
:102730003334435B6A767D7F7F7B776F6A63605D4E
:102740005B5A5958585858595B5C5D5E5E5D5B59E1
:1027500056545351504E4D4D4C4B4A4947464443B5
:102760004140404244464A4D5155575A5E61636567
:102770006767666664625F5B595552504D4B4946C8
:102780004442413F3D3A38363332302F2F2F2F2FDE
:102790002E2E2C2826221F1B1A191B1E22272D34F1
:1027A0003A3F42444748494B4C4D4D4D4D4D4343B4
:1027B00041403E3D3D3B3A3A393939373737373773
:1027C0003939393939393A3A3B3C3D3F3F40424348
:1027D0004547484A4C4F5253545656575959595ADF
:1027E0005A5A5A5A5959595756565452504E4D4B97
:1027F0004948454342403E3B3938353433302E2D2D
:10280000292622201E1A1715110E0B0500FAF7F3C0
:10281000EDE9E4DDD8D2CAC1B8B2ABA39E98918CE1
:102820008883818283878E959FABB7C7DAEE0816BF
:102830001C2A3A474B555F676A7075777B7E7F7FAE
:102840007F7E7B7B7874726D6963615C56504E4805
:1028500043413A35302E2924201E1A171613100D25
:102860000D0A09070707060606060707090C0F0FDA
:10287000121414171C1F202326272A2F3234373C0A
:102880003F414548484A4D4F4F5253565658595963
:102890005C5D5D5D5D5D5C5C595655524D4A4845D9
:1028A000423E3D3A3736332F2B2A2723201F03FB86
:1028B000F6EEE6DED6D0CAC6C4C2C1C2C4C5C8CA16
:1028C000CCCED0D2D2D3D3D3D3D3D3D3D6D8DDE2C8
:1028D000EAF0F8040F18202A323B424951565C6056
:1028E000616262615E5A56514C46413A332D251E53
:1028F000160E07FDF3E6D9CCBFB0A49B9189848165
:102900008184888C939EAAB7C4D2E0EBF806121D8E
:10291000262C3033343433322F2D2A2927262626ED
:1029200026272A2D2F3234383C4044484B4D5054F2
:1029300056595C5D5E606264656667686A6B6D6E61
:102940006F7172757677787A7C7E7F7F7F7F7C7BF4
:102950007875716B655E574F44382B1D0E00F3E39D
:10296000D3C4B5A89C948E8884818182868B9199EA
:10297000A3AFBCCAD9E7F5000D1A252F3840464948
:102980004D50525252514F4D4C494745444341419D
:1029900040403F3F3F3E3E3C3B3A38383736343488
:1029A000343332302F2D2B2926221D18110A04FD15
:1029B000F4EDEBE4DFDDD7CFC8C6C1BBB9B3ADA83A
:1029C000A6A39E9998969392908D8C8B8A898887DE
:1029D00086868584838383838382818181818181CB
:1029E0008182838384858788898A8B8C8D8F91925D
:1029F00093949596999A9B9D9E9FA0A2A4A4A7A903
:102A0000ABACADAFB0B3B5B7B8BABDBFC0C1C3C44E
:102A1000C6C9CACACDCFCFD1D4D5D5D7D8D8D8DAA0
:102A2000DADADBDDDDDDDEDEDEDEE0E0E0E0E0E0C8
:102A3000E0E0E0E0E0E0E0E0E0E0E0E0E0E0E0E096
:102A4000E0E0E0E0E0E0E0E0E0E0E0E0E1E1E1E182
:102A5000E1E3E3E4E4E4E6E6E6E6E8E8E8E9E9E918
:102A6000EBEBEBECECEEEEEEEFEFEFEFF1F1F1F183
:102A7000EFEFEFEFEFEEEEEEEEEEEEEEEEEFEFEF6E
:102A8000F2F4F6F7FAFDFF050B11141C24272F3A78
:102A90004448515C66697076787C7F7E7D79716A86
:102AA000675F5552483D343129211D150C0604F746
:102AB000EBE1D7CEC7C2BFBEBCBABCC0C8CFCCD179
:102AC000D8DDE3E7E7E4E2E1E0E2E3E3DFE2E5E7E4
:102AD000E8E8E8E9ECF1F1F1F4F9FBFFFEFBF6F0D0
:102AE000EAE4E3E6E9E7E2DDD5C9AF93AAF3E0E380
:102AF000DBD8D6D3D0CECCCCCED1D4D7DADDE0E182
:102B0000E1DEDBDCE1E6E9E9E7E6E4E1DCD8D5D3C8
:102B1000D3D4D7D9DBDBD9D6D2CECCCCC9C9D0DF80
:102B2000EDF6FD0101FEFCFAF8F6F8FAFBFCF8FA06
:102B3000FAFBFCFCFE0004070A0C0A060506080A5C
:102B40000A0702FEFCFAFCFCFAF7F8F9F9F8F6F3CA
:102B5000F1EFEDE9E6E6E6E7E9E7E2DFDAD5CFCA4D
:102B6000C9CBCBC8C2B8A9968FABD3DBD1C8B7BE8F
:102B7000BBB8B5B2B0B1B3B6BBC2C9D1D8DDE1E420
:102B8000E8EDF1F5F8FC02080C0E0F0F0F0D08032D
:102B90000102070F14181A1A1A1A191817191E26E3
:102BA00032465D717D7F7F7D74624E392513FDE86D
:102BB000D5C6B8ADA49C979392929395989CA1A5E5
:102BC000AAAEB3B8BCC0C2C3C3C4C4C5C7C8C9CB0E
:102BD000CCCED0D2D5D8DADDE0E4E7E8E7E4DFD93F
:102BE000D3CDC8C3BCB5AEA7A09A97979BA3A4A604
:102BF000A9ABACADADAEAFB0B1B3B5B7B9BBBDBFAE
:102C0000C1C3C4C5C7C9CACAC9C7C5C3C0BDBAB78D
:102C1000B6B5B4B3B2B1B0AFAEADADADAEB2B9C38F
:102C2000CCD5DDE3E7E9E9E8E6E6E6E8E9ECEAE960
:102C3000E9EAEBEBEDF0F4F8FBFCFBF8F6F6F9FA59
:102C4000F9F6F2EDEBEAEBEBE9E7E7E8E8E7E4E1D8
:102C5000DFDCD9D6D2D1D1D0CECBC7C2BDB7B0A9D7
:102C6000A29C96908B87848282828282828C8384CB
:102C7000858687888A8C8F93989FA6AEB6BEC6CD70
:102C8000D3D9DEE3E7EBF2F8FCFF010101FEFAF82D
:102C9000F7F8FB01060B0D0E0E0F12171E27313C25
:102CA000485563707A7F7F7A7163523D260FEA0838
:102CB0003C4D584F2D1AFDF9FC0E1A313D4F565E12
:102CC00067685E54403B3F464E626D7A7F7F7D77FA
:102CD000655A3F31160AF6ECE4D6CFC3BDB7B5B599
:102CE000BDC3CFD3DADAD8D6D4D2D2D3D3D4D4D4C6
:102CF000D6D8D8D6D6D6D6D6D6D6D6D4D2D2D2D084
:102D0000CFCCCBC9C7C7C5C5C5C7C9C9CBCDD0D422
:102D1000D6DBDFE3E7EBEEF1F3F3F5F7F9FAFCFCD2
:102D2000FEFEFEFE0000FEFEFCFAFAF9F7F5F1EFFA
:102D3000EAE8E4E2DFDBD8D5D1CECCCBC9C7C5C544
:102D4000C3C1C1C1C1C1C1C1C0C0BEBEBCBCBABA91
:102D5000BABABABCBCBEC0C1C3C3C5C7C7C7C7C562
:102D6000C5C5C3C3C3C1C1C0C0C0C0C0C0BFBDB959
:102D7000B3AFABA6A29E99948F8D8B8887858281F5
:102D80008181818181818383848687888A8C8F90E9
:102D9000919496999DA0A3A9AEB3B7BABFC2C5CA74
:102DA000CED1D6DADEE1E2E2E1E2E5E7E8EBF1FA04
:102DB00006111C263039434A525C646C72777A7E65
:102DC0007E7F7E7B777169605446362310FAE6D3A6
:102DD000C3B5A69A90898381818183888C92989EBD
:102DE000A4ABB0B5BCC1C6CBD0D4D6D8D8D7D1D17E
:102DF000D1D1D0CECDCCCACAC9C7C6C4C4C4C4C63A
:102E0000C7C9CACBCED0D1D3D4D6D7D9DADDDEE08C
:102E1000E3E4E6E6E4E3E0DDDBD7D4D1D0CECDCD0C
:102E2000CDCDCBCBCBCACACBCBCBCDCECED1D3D5D0
:102E3000D8DADEE1E4E6E9E9EAECECEEEEF0F1F313
:102E4000F6F6F9FAFAFBFAFAF9F7F5F2F0ECE9E737
:102E5000E3E1DEDDDAD9D6D4D1CECBC9C7C4C4C351
:102E6000C1C1C0C0BEBEBEBEBEC0C1C3C4C6C7C74E
:102E7000C9CACBCBCDCDCDCDCDCDCCCDCDCDCECE8C
:102E8000D0D0D1D1D3D3D3D4D4D4D6D6D6D7D7D704
:102E9000D7D6D6D4D3D1CECBC9C4C0B9B5AEA8A3EA
:102EA0009E9994918D8B8B8D9199A3B3C0D0FCFF8B
:102EB000FF020508090C0F0F12151717181B1E1F0C
:102EC00022252526292B2B2C2C2C2C2B292926247A
:102ED000221E1A1614100D0B0702FDFBF7F4F3F374
:102EE000F3F4F5F8FE0305090E1013181B1D20233B
:102EF00025293035393E43474D555A5D61676B6D25
:102F000071747476767676777777797C7D7D7D7F40
:102F10007F7D7C7A797672706B645F5B56504C482B
:102F2000423E3B36302B2825201D18120D0A050283
:102F300000FBF4EFEDE9E6E5E2E0DDDDDBDBDADA2C
:102F4000DAD8D8D7D5D2D2D0D0D0D0D2D4D4D7DB3B
:102F5000DEE2E8ECEFF3F6F6F9FBFCFCFCFF010126
:102F600004050506050403FFFCF9F3EBE5E1DBD4FA
:102F7000D0CAC2BDBAB5B1AEAAA5A09E9A9592928A
:102F8000918F8F8F8D8D8D8C8A8A8987848483839E
:102F9000838181818181838384898C8E949BA2A883
:102FA000B0B6BCC4CED6DBE2E9ECF1F7FAFB504C8C
:102FB00046423F3C3A3A3A3A393634343434343281
:102FC000312E2C2A26241F18130C04FDF7F0EAE6F4
:102FD000E0DDDCDCDCDFE4E9EEF2F4F8FAFC01032E
:102FE000030301FCF4ECE2D7CEC4B9B1ACA8A5A5AB
:102FF000A5A5A7A8AAADB0B2B5B7B8BABBBBBBBAB6
:10300000B7B2ADA69E9790898586878A8F94989B44
:103010009E9E9E9B98938F8A8481818181838586E1
:103020008685848281828587888A8C8E9194989CFB
:103030009E9F9F9FA1A5A7A8A8AAAEB0B0B0B0B20E
:10304000B5B7B7B7B7B9BABABABABABABABABABAF2
:10305000B9B9B9B9B9B9BABABABABDC0C2C2C3C6A8
:10306000CBCFD1D1D3D8DEE2E5E8EDF5FAFDFE0114
:1030700003040404070B0E14191E2124292B2E31DE
:1030800034373B3E424446494A4C4F515355585BB6
:103090005C5E61636466686A6D6F7173747678787C
:1030A0007A7A7B7E7E7F7F7F7F7F7F7F7F7F7D7D44
:1030B0007B7B7B79797977767674747271716F6EB8
:1030C0006E6B6A696563605E5C585654504E4B4641
:1030D000413D3A3733302E2A2725211E1A17161361
:1030E00011110E0E0D0B0A07070706060606060647
:1030F00006060707070909090A0A0A0A0A0A0A0A44
:10310000090909060605030201FFFCFAF9F7F4F2C2
:10311000F1EEECE9E5E2DEDCDAD6D4D1CDCBC8C401
:10312000C0BBB8B6B2B0AEAAA8A5A19E9A98979314
:1031300092918D8C8B89888585858282828181811F
:103140008181828282838383868686888A8C8D8F22
:1031500091929397989A9DA0A4A6A8ACAFB1B6B847
:10316000BBC1C6CCD0D4DADDE1E6EBF1F6FB0F62F1
:103170007A7E7D7C7C7E7C7A77757474777A7A79B6
:1031800077777777797A79797979787777787979BC
:1031900079797979797979787777777777777879AD
:1031A0007979797979797979787777777879797997
:1031B000797979797979797877777777777879798B
:1031C0007979797979797979797877777879797975
:1031D000797979797977757676787B7B7876737477
:1031E0007A7E7F7F7D7878797C76706A4FF8AF96AB
:1031F0008C878C8B88888887898987888888888A43
:103200008A818181818181818181818181818181A5
:10321000818181818181818181818181818181819E
:10322000818181818181818181818181818181818E
:10323000818181818181818181818181818181817E
:10324000818181818181818181818181818181816E
:10325000818181818181818181818181818181815E
:10326000818181818181818181818181818181814E
:10327000818181818181818181818181818181813E
:10328000818181818181818181818181818181812E
:10329000818181818181818181818181818181811E
:1032A000818181818181818181818181818181810E
:1032B00081818181818181818181818181818181FE
:1032C00081818181818181818181818181818181EE
:1032D00081818181818181818181818181818181DE
:1032E0008181818181818181818181818181D30EEF
:1032F0006C757F7C7F7C7E7B7B7C7C7B7A7977772F
:10330000767575737271706E6E6E6D6C6C696867D0
:103310006765646463615F5F5E5C5B5A57555352D7
:10332000515150504E4E4D4C4A4A494847484747E4
:103330004747454543434141403F3E3C3B38373694
:103340003532312E2D2D2A2A2929282929282825C8
:10335000252321201F1F1E1E1C1C1B1A18171615A3
:103360001512111112121212110F0E0D0C0A08066D
:10337000040101FFFFFDFDFDFDFDFCFCFBFAF8F77C
:10338000F7F6F4F3F3F1EFEEEDEDEAEAE8E6E5E562
:10339000E4E2E1E0DFDBDAD7D6D4D3D3D3D3D3D39F
:1033A000D2D1CFCECECECDCDCBCAC9C6C5C4C1C079
:1033B000C0C0BDBDBCBBBBB9B9B7B6B4B2B0AFAE8F
:1033C000ABABAAAAA9A9A7A6A6A4A2A0A09F9D9DAF
:1033D0009C9B9B999897979393908F8D8D8B8A89BF
:1033E0008989878786878684818FA1C4E1E9EAF588
:1033F000FDFFFFFDFCFAFAF8F6F1F0EEECEAEAE97F
:10340000E7E5E3E2DEDDDBDBD9D9D7D7D6D6D4D406
:10341000D0CFCFCFCFCDCDCBCBCAC8C6C4C3C1BF11
:10342000BDBFBDBDBFBDBDBDBDBABDC3D2F1FCF00A
:10343000E4D8CABDB2A7A19E9B9C9E9F9F9F9E9CC5
:103440009A98989898999A9EA2A4A8ACB0B4BBC434
:10345000CBD0D7DDE2E4E6E8E9EDF0F2F2F2F2F00B
:10346000F0EFECEAE9EBEFF1F4F6F7F7F6F4F1EE52
:10347000E9E5E3E2E4E6E7EBF0F4F7F6F4F4F4F47C
:10348000F2F2F0EDEBEBEBEDEEF2F9FE02060808DE
:10349000090B0B090704010102060B0E121719197B
:1034A0001B1E1F22272A2A292523221F1915131024
:1034B0000F10121214141414141412100F0D080308
:1034C000FEF9F2EEEDF0F4F8F9FBFF040C151D2403
:1034D0002C33363633302E2A27252522201E1E2057
:1034E000252A2D2E2D2923190F07FAECE2E5F0F1FC
:1034F000ECE1D6CEC8C1B7AFA9A39C97918A8584C9
:10350000828184868C959FA8B4BFC9D5E3EFF80467
:10351000121C242D363E47535D646C757A7B7D7F8B
:103520007F7F7A746F68615A544334261709F4F325
:10353000F2EFECE6E1DCD9D9D6D6D6D6D6D5D3D2C1
:10354000D2D2D2D2D2D2CFCFCFCCCCCAC7C5C2C2B0
:10355000C2BFBFBFBCBCBBB9B8B8B8BABDBFC2C69A
:10356000C9CDD2D6DADFE3E8EFF7FE03080F14186F
:103570001D2123282C3134373B3E42474B4F5458B2
:103580005C62686E727377787A7D7F7F7F7F7F7FE2
:103590007D7A78777372706D6B69645F5955514CA1
:1035A00048423A342E27211A110902FDF7EFE9E4C7
:1035B000DED9D3CAC2BCB8B4AFABAAA6A5A3A09E9D
:1035C0009D999793918F8A88868381818181848454
:1035D000878B8E9195989B9FA2A6ACB2B8BCC0C5B4
:1035E000C9CBD0D2D4D7D9DCE1E6ECF0F4F9FD01B7
:1035F000060A0B0F12171A1C1F21222627272A2A18
:103600002A2A2A27272727272727272622201C1A66
:10361000171310100D0D0D10101010101010100DAC
:103620000D0C08070400FDF9F3EDEAEAEEF2F5F8F7
:10363000F9F7F7F5F4F2EEEDEAE7E3E0DDD9D6D5F8
:10364000D3D0CDCBC8C7C6C3C0BEBCB8B4B1B0AE72
:10365000ADAAA7A5A4A2A09F9D9B9A9996918F8E93
:103660008C89898786848484838382828182838211
:103670008181828586868787898A8C8D8E909091BC
:103680009396979A9B9D9EA0A1A2A4A4A4A5A7AA45
:10369000ABACADB0B2B4B7B8BBBEC1C3C6CACCCD7B
:1036A000D0D4D8DCE2E6E9EDF1F4F9FE0101020242
:1036B0000406090C0E1013161718191C1F202022BF
:1036C000242526282A2C2D2C2C2D2F323536363623
:1036D0003637383A3D3E3F3F404245484C4F5254C2
:1036E00055585D626566676A6F75797B7C7F7F7F01
:1036F0007F7F7F7F7F7E7C7A777675726E6B69675E
:10370000625D5854514E4944413C3834312E2C2985
:103710002624211F1D1C1C1B1918191A18151313F8
:10372000120E080502FEFAF5F3F3F4F2F0F1DDD122
:10373000C7C0B7B0ACA8A3A09C9793929292929165
:103740008F8F919291909193949393969899989743
:10375000979795928F8E8E8E8D8B898685858585A0
:10376000858482818284858586898A8B8B899193E1
:1037700096989BA0A6AAAEB0B1B5BABEC1C2C3C549
:10378000C6C6C7CACCCCCBCACACBCCCBC9C6C3C1B0
:10379000BEBEC0C0BEBCBAB9BBBEBFBEBDBDBEC250
:1037A000C5C7C9CBCDCFD3D6DCE4EBF2F8FD0C1CFA
:1037B0002D3F515D6B767C7F7F7D7A75706C676580
:1037C00064646464635F5A56534F4B4746444341B5
:1037D0004348515853402A1407FAF2F1F3F3EDE04D
:1037E000CFC3B2A298949191949AA1A7AEB4B7B660
:1037F000B7B8B8BABDC0C6CFD9E6F3FB0006070418
:10380000FFFD0008131D252A2D2D2D2A251F1B1B0A
:103810001D1F2223252725221D19120B06FCF3E765
:10382000DCCDC1B9AFA8A5A8AFB9C1CCD5DCE9F54D
:10383000FD0A1924334455626F797D7E7873695B84
:103840004D413121190C00F8EEE2DACDBFB1A89C50
:10385000928B868484878F99A0ADBECADDF0FD0C63
:103860001C2630383F44484D4F535656534E494519
:103870003B31271A0D07FFF7F0E9E1DCDAD8D6D59E
:10388000D3D3D3D3D6D9E3EEF8010C161D222525C8
:10389000211A120BFFF2E7D8C9BEAFA29991898411
:1038A000818185878E949AA2ACB9C6D8EB00AE9F71
:1038B0008F8C81828484818B898B8D8C898699A859
:1038C000B2B2B2B1AFABB7BAB6ABA69F9CA0C1D2F1
:1038D000E7EBF7F9F7F2F9FBF7EFEEEAE0DBF2FEE0
:1038E000FDFAF3EEDDD4CDCABFB9B5B3B7C1E6E892
:1038F000FE0A20282E2B3A42423E3F3C302C3F4BC2
:103900004D4B4541362F3030281F110A020625360F
:1039100045494647423B383A3027150EFEF9F90231
:10392000FBF7E8E3D8CECCCCC8C2C5C5D1DB8E81CD
:10393000858E9EA9B3AFD0DFE7E3EFEBDBD60A239A
:103940002C2C322E2317282E251500F6EBEF283CC1
:103950005C646C726C626870665949412A21364910
:103960004945342C1506F4F6E7DDD2D0D6E1FEE564
:10397000F300232C383C4D575C5C605C5553666EFD
:10398000706E6A6A64665C5A4D4534302C2C40492E
:103990005353494541403A3E3A3828282325191DBA
:1039A000110AF3EDE3E3E5E7E3E1E9E9F4F6D4C175
:1039B000C1CCDFEBF8F81B28322E3A382E2C4B5EA8
:1039C00066686C6A60595E62594D3C362C30535EB5
:1039D00075797D7F7B75727B736C5C59494543516A
:1039E0004F4936321F150608FEF6EFEDF1F6F8DF07
:1039F000E1E9FC020A0D131519191B19191D2326DB
:103A00002A2A2A2E2E342E2C26251F1F2121211F43
:103A1000231D0F0A0404F6FAF8FCF4FAFE0608085F
:103A200000FAEDE9E5EBF6FAF8F8020204026800A4
:103A300000106B0030447D0030448F003044A10002
:103A40003044B3002444C5000000C8000000CB008F
:103A50000000CE000000D1000000D4000000D7001C
:103A60000000DA000000DD000000E0000000E300DC
:103A70000000E6000000E9000000EC000000EF009C
:103A80000000F2000000F5000000F8000000FB005C
:103A90000000FE0000000101000004010000070119
:103AA00000000A0100000D010000100100001301D8
:103AB000000016010000190100001C0100001F0198
:103AC00000002201000025010000280100002B0158
:103AD00000002E0100003101000034010000370118
:103AE00000003A0100003D010000400100004301D8
:103AF000000046010000490100004C0100004F0198
:103B000000005201000055010000580100005B0157
:103B100000005E0100006101000064010000670117
:103B200000006A0100006D01000070012412820192
:103B3000281394012A13A6012412B8010000BB0126
:103B40000000BE010000C1010000C4010024D60134
:103B50000012E8010024FA010A240C0200241E02CB
:103B600000002102000024020000270200002A02B7
:103B700000243C0200244E020000510200005402C6
:103B80000000570200005A0200005D0200136F029D
:103B900000138102001393020000960200009902B4
:103BA00000009C0200009F020000A2020000A5028B
:103BB0000000A8020000AB020000AE020000B1024B
:103BC0000000B4020000B7020000BA020000BD020B
:103BD0000000C0020000C3020000C6020000C902CB
:103BE0000000CC020000CF020000D2020000D5028B
:103BF0000000E7020000EA020000ED020000F0020F
:103C00000000F3020000F6020000F9020000FC02CE
:103C10000000FF020000020300000503000008038B
:103C200000000B0300000E0300001103000014034A
:103C30007F0026033000380330004A0300005C0395
:103C400000006E030000710300007403000077039E
:103C500000007A0300007D0300008003000083035E
:103C6000000086030000890300008C0300008F031E
:103C70006300A1035F00B3030000B6030000B903B3
:103C80000000BC030000BF030000C2030000C50326
:103C90000000C8030000CB030000CE030000D103E6
:103CA0000000D4030000D7030000DA030000DD03A6
:103CB0000000E0030000E3030000E6030000E90366
:103CC0000000EC030000EF030000F2030000F50326
:103CD0000000F8030000FB030000FE0300000104E5
:103CE000000004040000070400000A0400000D04A2
:103CF0000000100400001304000016040000190462
:103D000000001C0400001F04000022040000250421
:103D10000000280400002B0400002E0400003104E1
:103D2000000034040000370400003A04000040049E
:103D30000000460400024F040000580450006404D0
:103D400040026D040000730440027C04501385049B
:103D500000028E040000940410009A040002A304E0
:103D60002002AC041013B8042513C4040013D004BB
:103D70000002D9040002E2040000E5040000E804A7
:103D80000000EB040000EE040000F1040000F40465
:103D90000000F7040000FA040000FD040000000524
:103DA00000000305000006050000090500000C05E1
:103DB0003002150500021E05000021050000240543
:103DC0000000270500002A0500002D050000300531
:103DD00000003305000036050000390500003C05F1
:103DE00000003F05000042050000450500004805B1
:103DF000201054050000570500005A0500005D051D
:103E0000000060050000630500006605000069050C
:103E100000006C0500006F050000720500007505CC
:103E200040027E05400287054002900540001F1FAA
:103E3000272B1D1F243C253C263C25284327434394
:103E40000C3C430C430C430C0C0C0C0C0C0C0C0CDD
:103E5000433C0C0C0C0C0C0C0C0C0C0C0C1B001D27
:103E6000001E00200022002400260029002B002E26
:103E70000030003300360039003D00400044004867
:103E8000004D00510056005B00600066006C00733E
:103E90000079008100880090009900A200AC00B673
:103EA00000C100CC00D800E500F3000101110121A0
:103EB000013201440158016C0182019901B101CB29
:103EC00001E60103022102420264028902AF02D824
:103ED000020303310362039503CC03060443048405
:103EE00004C90411055E05B00507066306C4062B68
:103EF0000798070B08860808099109230ABD0A607C
:103F00000B0E0CC50C870D550E300F17100C110F32
:103F100012221345147A15C1161B188A190F1BABF0
:103F20001C5F1E2D2017221E2444268B28F42A8273
:103F30002D363014331E365539BE3C5B402F443C81
:103F400048884C1551E755035B6C6028663B6CABA9
:103F5000727C79B6805D88799010992AA2AE1001A2
:103F6000FF00000CA31001FF00000C6E1101FF0008
:103F70000004AE1001C400030CEE1101FF000004A8
:103F80006E1201FF0000042E1001FFC204040F1284
:103F900001C5BF00042E1404FFC500006E1403FF0A
:103FA0000000006E1404FF0000006E1303FF000009
:103FB000002E1503FFC500006E1503FF0000006E04
:103FC0001503FF0000000D1301C70000006E16402E
:103FD000FF0000006E1641FF000200D01640FF00F7
:103FE00000006E1740FF0000002E1742FF00000087
:103FF0006E1840FFC60000EE1840FF0000006E186B
:1040000040FF000000EE1A01FF0000002E1B01FF20
:104010000000009C1A01FF000000EE1B01FF0000E1
:10402000006E1A01FF000000041C05FFC80000EE2E
:104030001C05FFC80000EE1905FFC80000AE2101F5
:10404000FF000000AE2301FF000000AE2303FF00CD
:104050000000AE2303FF000000AE2303FF000000BA
:10406000AE2303FF000000EE2303FF0000002E221A
:1040700003FF000000AE2450C9000000EE2450C928
:104080000000006E2550C0000000AE2403FF0000B9
:1040900000AE2551FF0000006E2504FF0000006EF9
:1040A0001501FF0000002E2101C3C00300A823500A
:1040B000FF000000002450FF000000EE3350FF001E
:1040C0000000EE3350FF0000002E344AFCD10008FF
:1040D0002E3649FFD20000AE3347FFD10000AE3884
:1040E00080FFD000006E2658CA000008882658F0CD
:1040F0000000082E2859FFE000002E2758CA0000B3
:10410000006E2958FFCE0000AE2A58FFCE00086E80
:104110003157C9CC00006E3157C0CD0000AE2758D2
:10412000FF0000002E2C58CACB00082E2C58CACBFA
:1041300000082E2C58CACB0008EE2C58FF000000B7
:10414000AE2D58FF000000E42758FF000000AE2EFF
:1041500050FD0000002E3049F0CA0000EE2F49F05B
:10416000CA0000922249FF000000EE2F49F0CF0064
:1041700000EE2F48F0CF00005A3048FF000000AE9C
:104180002150FF000000AE2150FF000000AE313F83
:10419000FF000000EE323FFFC80000ED2F49F0CADB
:1041A0000000A53240FF000000CB3240FF000000BD
:1041B0002E3647FF000000793140FF000000A83094
:1041C0003FFF000000A72148FF000000D92F48FF53
:1041D0003B0000EE3040F0000000AE3648FF00002B
:1041E00000AE2148FF0000004E3648FF000000AE40
:1041F0002148FF0000006E2448FF000000AE2101AE
:10420000FF000000AE2101FF000000AE2101FF0011
:104210000000AE2101FF000000AE2101FF00000000
:10422000AE2101FF000000AE2101FF000000AE2121
:1042300001FF000000AE2101FF000000AE2101FFE0
:10424000000000AE2101FF000000AE2101FF0000D0
:1042500000AE2101FF000000AE2101FF000000AE12
:104260002101FF000000AE2101FF000000AE21018E
:10427000FF000000AE2101FF000000AE2101FF00A1
:104280000000AE2101FF000000AE2101FF00070089
:10429000AE2101FF000700AE2101FF0007002E2024
:1042A00070FF000001AE2101FF000000AE2101FF00
:1042B000000000AE2101FF000000AE2101FF000060
:1042C00000AE2101FF000000AE2101FF000000133D
:1042D000244BFF0000016E2002FF0000016E2180D0
:1042E000FFC003006E2180FFC000006E2082FF002F
:1042F00000016E2081FF0500016E2082FF00000199
:104300006E2081FF0500016E2180020300006E20F7
:1043100082FF0000036E2180FF0400006E2082FFF8
:104320000000036E2180FF0400006E2081FF00006A
:10433000036E2180020300006E2180020300002E24
:104340001E90FDD000006E218002030000BD1E9172
:10435000FDD000002E1E90FED00000011F04FFD0F3
:1043600000022E1F81CCCB00026E1E90FDD00000FB
:10437000AE2104FF0020002E1E90FFD00000AE21D1
:1043800004FF0020002E1F91FDD00000AE2180FF11
:10439000002000AE2180FF002000AE2180FF002021
:1043A00000AE2180FF002000AE2180FF002000AE83
:1043B0002181FF002000AE2181FF002000AE21817D
:1043C000FF002000AE2181FF002000481F84C4D0E0
:1043D0000002192083FF000003AE2101FF0020002E
:1043E000AE2101FF002000AE2104FF002000AE211D
:1043F00004FF000000AE2104FF002000AE2104FFF6
:10440000002000AE2104FF002000AE2104FF0020A8
:1044100000AE2104FF002000AE2104FF002000AE0A
:104420002104FF00200000000000230026002900D6
:10443000040404040404040402020202020203034A
:104440000303030301020408102040800102040852
:1044500010200102040810200000000800020100E2
:10446000000304070000000000000000762611246D
:104470001FBECFEFD8E0DEBFCDBF13E0A0E0B1E0BC
:10448000E6E7F3E502C005900D92AC30B107D9F72D
:1044900025E0ACE0B3E001C01D92A334B207E1F720
:1044A00012E2C7E3D2E204C02197FE010E94B329C1
:1044B000C633D107C9F70E948B260C94B9290C94F6
:1044C000000090E0FC01E85AFB4B2491FC01EC5BFE
:1044D000FB4B3491FC01E05DFB4BE491EE23C1F119
:1044E000222339F02330E9F090F4213001F1223019
:1044F00011F1F0E0EE0FFF1FEA5DFB4BA591B491C7
:10450000EC91E32381E090E029F580E008952730E5
:10451000A9F02830C9F0243061F7809180008F7DA8
:1045200003C0809180008F7780938000E2CF84B5B4
:104530008F7784BDDECF84B58F7DFBCF8091B000B7
:104540008F778093B000D5CF8091B0008F7DF9CF69
:1045500080E090E008950F931F93CF93DF9300D0F6
:104560001F92CDB7DEB78C01FC016081718184811F
:10457000F3E08F9F600D711D112443E050E0CE01E8
:1045800001960E94692989819A81F8019087878321
:104590008B8181870F900F900F90DF91CF911F91AA
:1045A0000F910895F8941092700078949AE0989F73
:1045B000F0011124EC5AFD4F34812381321728F485
:1045C00023812483CF010E94AB2282E0809370007C
:1045D0000895EF92FF920F931F93CF93DF93F82EDE
:1045E000E62E03E315E0CFE0D0E0F80187858E11D9
:1045F00009C0FE01ED5DFA4F80818F1103C08C2F41
:104600000E94D222219701501109CF3FDC0769F7A0
:10461000DF91CF911F910F91FF90EF9008950F932D
:104620001F93CF93DF9300D000D0CDB7DEB78C01BE
:1046300084E0689FB0011124625D754C44E050E055
:10464000CE0101960E94692989819A81F80191839E
:1046500080838C81282F30E094E0359527959A95BA
:10466000E1F722838F7083838B8190E0982F8827D6
:10467000968385831482C8010E94AB220F900F900D
:104680000F900F90DF91CF911F910F910895CF93CD
:10469000FC012781308585819681820F931F968347
:1046A000858385819681C92F97FD05C08781908577
:1046B0001816190634F081858C1734F48C2FCF919D
:1046C00008958185C817D4F3C1858185082E000C13
:1046D000990B982F88279683858384818F5F8483A5
:1046E00094818381981302C082818483CF010E94C8
:1046F000AB22E4CF1F920F920FB60F921124AF920C
:10470000BF92CF92DF92EF92FF920F931F932F935E
:104710003F934F935F936F937F938F939F93AF9349
:10472000BF93CF93DF93EF93FF9310927000789431
:1047300080910001909101019C01217033273195F6
:10474000219531092227347B96958795282739278B
:10475000309301012093000190912C039F5F90936F
:104760002C03892F8F70C82FD0E0FE01E35DFC4F32
:104770004081442321F0FE01E35BFC4F2083907FC6
:10478000903509F462C2903A09F477C2911118C0C9
:104790001AE0819FC00111248E559E4F0E9447232D
:1047A000CC0FDD1FFE01E150FC4F20813181805490
:1047B000280F311D87FD3A95C35ADC4F3983288372
:1047C00020915D0330915E03E0910C03F0910D03A5
:1047D0002E0F3F1F30930D0320930C03A0905F0317
:1047E000B0906003E0910E03F0910F03AE0EBF1E78
:1047F000B0920F03A0920E03C0906103D0906203A9
:10480000E0911003F0911103CE0EDF1ED092110340
:10481000C0921003E0906303F0906403E0911203F0
:10482000F0911303EE0EFF1EF0921303E0921203B9
:104830000091650310916603E0911403F091150354
:104840000E0F1F1F1093150300931403C0916703ED
:10485000D0916803E0911603F0911703CE0FDF1F8C
:10486000D0931703C0931603A0916903B0916A0314
:10487000E0911803F0911903AE0FBF1FB093190315
:10488000A093180360916B0370916C03E0911A037D
:10489000F0911B036E0F7F1F70931B0360931A032D
:1048A000232F3327E0917D03F0917E03E20FF31F66
:1048B0002491AB2CBB24E0917F03F0918003EA0D9F
:1048C000FB1DA490CD2CDD24E0918103F0918203A7
:1048D000EC0DFD1DC490EF2CFF24E0918303F091BB
:1048E0008403EE0DFF1DE490012F1127E091850355
:1048F000F0918603E00FF11F0491CD2FDD27E091A9
:104900008703F0918803EC0FFD1FC491AB2FBB27E9
:10491000E0918903F0918A03EA0FFB1FA491672FAE
:104920007727E0918B03F0918C03E60FF71F6491DA
:1049300040914D0350913D0390914E0310913E03E1
:1049400080914F0370913F03E091500330914003F9
:1049500042274503A0011124A9262A2D2103500135
:1049600011244A0D5B1DC8261C2D1703600111245C
:104970004C0D5D1DEE262E2D2303700111244E0DCE
:104980005F1D8091510320914103B091520310911A
:104990004203F091530370914303E091540330912B
:1049A000440308270203C0011124CB272C2F210325
:1049B000E00111248C0F9D1FAF271A2F1703D00180
:1049C00011248A0F9B1F6E276303B0011124860FE9
:1049D000971F840F951F905897BD88BD40916D0318
:1049E00050916E03E0911C03F0911D034E0F5F1F69
:1049F00050931D0340931C03C0906F03D09070032D
:104A0000E0911E03F0911F03CE0EDF1ED0921F0314
:104A1000C0921E03E0907103F0907203E0912003B6
:104A2000F0912103EE0EFF1EF0922103E09220038D
:104A30000091730310917403E0912203F09123031A
:104A40000E0F1F1F1093230300932203C0917503C1
:104A5000D0917603E0912403F0912503CE0FDF1F60
:104A6000D0932503C0932403A0917703B0917803DA
:104A7000E0912603F0912703AE0FBF1FB0932703E9
:104A8000A09326036091790370917A03E091280343
:104A9000F09129036E0F7F1F709329036093280301
:104AA00020917B0330917C03E0912A03F0912B034A
:104AB0002E0F3F1F30932B0320932A03452F55279A
:104AC000E0918D03F0918E03E40FF51F9491CD2CAE
:104AD000DD24E0918F03F0919003EC0DFD1DC49057
:104AE000EF2CFF24E0919103F0919203EE0DFF1D56
:104AF000E490012F1127E0919303F0919403E00FCC
:104B0000F11F0491CD2FDD27E0919503F0919603DD
:104B1000EC0FFD1FC491AB2FBB27E0919703F091E1
:104B20009803EA0FFB1FA491672F7727E091990361
:104B3000F0919A03E60FF71F6491232F3327E0913A
:104B40009B03F0919C03E20FF31F74914091550376
:104B500050914503F09156031091460380915703FD
:104B600030914703E0915803B0914803492745032A
:104B7000A0011124CF262C2D2103600111244C0DFE
:104B80005D1DE8261E2D1303700111244E0D5F1DBF
:104B90000E271B2F010390011124420F531F8091F8
:104BA000590390914903B0915A0300914A03F0913F
:104BB0005B0310914B03E0915C03D0914C038C2775
:104BC000292F382F3203C0011124AB272A2F2003AD
:104BD000D00111248A0F9B1F6F276103D00111247C
:104BE0008A0F9B1F7E276D2F760390011124820F61
:104BF000931F840F951F9058292F332730938B00D4
:104C000020938A009927909389008093880082E0FE
:104C100080937000FF91EF91DF91CF91BF91AF91A1
:104C20009F918F917F916F915F914F913F912F91C4
:104C30001F910F91FF90EF90DF90CF90BF90AF90BA
:104C40000F900FBE0F901F9018952AE0829FC00111
:104C500011248E5F9E4F0E944723CC0FDD1FFE0163
:104C6000E358FC4FC356DC4F28813981280F311D92
:104C700087FD3A9531832083A3CD3AE0839FC0011D
:104C800011248C5A9D4F0E944723FE01E354FC4F90
:104C90009081899FC0011124C35CDC4F988390CD23
:104CA0001F920F920FB60F9211242F938F939F9301
:104CB000EF93FF939091C6008091B1048F5F8F7343
:104CC0002091B204821741F0E091B104F0E0EF5876
:104CD000FB4F90838093B104FF91EF919F918F914F
:104CE0002F910F900FBE0F901F901895CF93DF93C9
:104CF000D0E0C0E047E050E06DE57FE3CE01845EA8
:104D00009A4F0E9469292797C0398FEFD80791F7EA
:104D1000DF91CF910895CF93DF9300D01F92CDB74D
:104D2000DEB781E00E946122019719F082E00E94C3
:104D3000612281E00E946122019719F082E00E94C5
:104D4000612281E883BD10926E0010926F0083EAA9
:104D500084BD81E085BD8AB180668AB982EA80938C
:104D6000800089E180938100109287008FEF80930B
:104D7000860084B1866084B980E886BD1092840084
:104D80001092850013BC82E08093B0008093B10044
:104D900095E69093B300809370001092C5008FE168
:104DA0008093C40086E08093C2008091C100806936
:104DB0008093C100789412E0B12E212C00E2302EB5
:104DC000412C512CAAE09A2EB8E08B2E9091B10480
:104DD0008091B204981709F406C2E091B204F0E0A1
:104DE000EF58FB4F20812B838091B2048F5F8F732C
:104DF0008093B20427FF24C080915302873019F4B6
:104E000080925302E3CF1B8112951F7018501093AC
:104E1000530284E00E946122212F30E0019769F45F
:104E200024503D4FF90180818093FE031092FD03D1
:104E3000FB81FF70F0935202C9CF2C503D4FF2CF4F
:104E4000F090FE03FF2011F2E091FD0381E08E0F50
:104E50008093FD03F0E0E352FC4F2B812083FA9412
:104E6000F092FE03F110B2CF3091DD033B838091CD
:104E70005302833009F436C170F48823D9F18130AC
:104E800009F0A4CFE090DE03A0905202E11038C0F8
:104E90006B818A2D32C0843009F48CC1863009F0D0
:104EA00095CF8091DE03382F36953A8387958827F2
:104EB0008795898380915202E82FF0E0EE0FFF1F63
:104EC000E15BFB4F29813A814B81242B3183208385
:104ED00021E030E002C0220F331F8A95E2F7809173
:104EE0006F0490917004822B932B909370048093A5
:104EF0006F046CCF6B81809152020E94E92266CFD1
:104F000049E0A4121CC05B8153525B835E3210F0F7
:104F10008DE28B836B81605897E0699FB00111240B
:104F2000635A704C47E050E082EF94E00E94692998
:104F3000AB81EA2FF0E0E25DF14C24912B8390915C
:104F4000EE022091EF023091F002B22F8FE03EE0AE
:104F5000939EF0011124EC5AFD4FA481A91758F03B
:104F6000A913B7C0458156816781708577FDACC0B4
:104F70004B170CF0ACC0315058F7082F10E0F80177
:104F8000E353FC4FE0822A2D30E0F901EE5BFD4F48
:104F90006081E69EB0011124672F772747E0429F8A
:104FA000F001439FF00D1124ED54FB4F468141FD6C
:104FB00096C0962F742F71705B81E52FF0E0DF01B2
:104FC00054E0B595A7955A95E1F7AC5FBC4F5C915D
:104FD000652F42FF60E043FF06C0F52EF294FF0C00
:104FE000FF0CA0ECFA22D801A15EBB4F4B814C9381
:104FF000EE0FFF1FE35AF14C45915491F894109233
:1050000070007894A7E0A29FF001A39FF00D1124F7
:105010009F012D543B4F6901F901A081B181AF0D72
:10502000B11D9801220F331FF901E356FC4FB183E4
:10503000A083F901E358FC4FB183A083F901E15D3E
:10504000FB4F51834083F901E150FC4F5183408372
:10505000235A3C4FF90151834083F6012581F80121
:10506000E35BFC4F2083F801E35CFC4F1082F80106
:10507000E35DFC4F7083F801E354FC4F9083899DFE
:1050800070011124F6018281680FC7018C5A9D4F6F
:105090000E940F23F6016381C7018E559E4F0E9427
:1050A0000F23F6016481C7018E5F9E4F0E940F237C
:1050B000B0927000F801ED5CFA4F2B812083F8016B
:1050C000ED5DFA4FA08282CEB4170CF454CFB42F0A
:1050D00003C085819681B82F9A2F832F4CCF759569
:1050E000679567CF8091DE03D09052025B8158377D
:1050F00059F15B3709F44AC0573009F067CE880F81
:10510000ED2DF0E0EE5BFD4F8083E3E2F5E02FE074
:1051100030E09785D91211C0D901A353BC4F4C91EF
:10512000849FA0011124F894109270007894D90102
:10513000A354BC4F5C93B092700021503109319759
:105140002F3F320731F742CE811140CE63E2E62E87
:1051500065E0F62E0FE010E0F7018785D8120DC04C
:10516000802F0E94D222F894109270007894F80157
:10517000E354FC4F1082B092700001501109F1E02D
:10518000EF1AF1080F3F100739F720CE81111ECE1C
:1051900003E315E03FE03B83F80182918F01D812D1
:1051A00003C08B810E94D222FB81F150FB83FF3F21
:1051B00099F70CCE80915202E82FF0E0EE5BFD4FA4
:1051C0002FEF20833B8147E0349FB0011124635AC5
:1051D000704C849FC001112447E050E08D549B4FD8
:1051E0000E946929F3CD1B8280916F049091700415
:1051F000009709F4E7CD80FF56C05B81E52FEE0FE5
:10520000FF0BE15BFB4FC080D18080E2D81A53E2F4
:10521000652E55E0752E0FE010E0F3018785FB81C8
:105220008F1338C04801880C991CF401E15DFB4FD5
:10523000E080F180F801E15EFB4FE081F0E0EE0FED
:10524000FF1FD7FC3EC0EF59F14C259134912E1928
:105250003F09A601AA27429FB0015303C001349F12
:10526000700D811D9A1F52039A0B700D811D9A1F9C
:105270001124A20191010E9472292E0D3F1DF89464
:10528000109270007894F401E150FC4F3183208338
:10529000B09270000150110951E0651A71080F3F7A
:1052A000100709F0BACF80916F0490917004969521
:1052B00087959093700480936F049B819F5F9B837D
:1052C00093CFE75AF14C859194919701281B390BA4
:1052D000C0CFFB01DC0102C005900D92415050404F
:1052E000D8F70895052E97FB1EF400940E94892993
:1052F00057FD07D00E94912907FC03D04EF40C946F
:10530000892950954095309521953F4F4F4F5F4FDC
:10531000089590958095709561957F4F8F4F9F4F21
:105320000895A1E21A2EAA1BBB1BFD010DC0AA1FE6
:10533000BB1FEE1FFF1FA217B307E407F50720F0FE
:10534000A21BB30BE40BF50B661F771F881F991F79
:105350001A9469F760957095809590959B01AC01C2
:10536000BD01CF010895EE0FFF1F0590F491E02DD0
:105370000994F894FFCFE1AC0000FFFFFF000000AC
:1053800000C00000FFFFFF00000000C00000FFFFA2
:10539000FF00000000C00000FFFFFF00000000C091
:1053A0000000FFFFFF00000000C00000FFFFFF0043
:1053B000000000C00000FFFFFF00000000C0000070
:1053C000FFFFFF00000000C00000FFFFFF00000023
:1053D00000C00000FFFFFF00000000C00000FFFF52
:1053E000FF00000000C00000FFFFFF00000000C041
:1053F0000000FFFFFF00000000C00000FFFFFF00F3
:10540000000000C00000FFFFFF00000000C000001F
:10541000FFFFFF00000000C00000FFFFFF000000D2
:1054200000C00000FFFFFF00000000C00000FFFF01
:10543000FF00000000C00000FFFFFF00000000C0F0
:105440000000FFFFFF00000000C00000FFFFFF00A2
:10545000000000C00000FFFFFF00000000C00000CF
:10546000FFFFFF00000000C00000FFFFFF00000082
:1054700000C00000FFFFFF00000000C00000FFFFB1
:10548000FF00000000C00000FFFFFF00000000C0A0
:105490000000FFFFFF00000000C00000FFFFFF0052
:1054A000000000C00000FFFFFF00000000C000007F
:1054B000FFFFFF00000000C0FFFFFFFFFFFFFFFF37
:1054C000FFFFFFFFFFFFFFFFFF080000FFFFFF00E0
:1054D000000000C00000FFFFFF00000000C000004F
:1054E000FFFFFF00000000C00000FFFFFF00000002
:1054F00000C00000FFFFFF00000000C00000FFFF31
:10550000FF00000000C00000FFFFFF00000000C01F
:105510000000FFFFFF00000000C00000FFFFFF00D1
:10552000000000C00000FFFFFF00000000C00000FE
:10553000FFFFFF00000000C00000FFFFFF000000B1
:1055400000C00000FFFFFF00000000C00000FFFFE0
:10555000FF00000000C00000FFFFFF00000000C0CF
:105560000000FFFFFF00000000C002020202010174
:1055700002200202020102010220000001010203D6
:02558000030323
:107E0000112484B714BE81FFF0D085E080938100F7
:107E100082E08093C00088E18093C10086E0809377
:107E2000C20080E18093C4008EE0C9D0259A86E02C
:107E300020E33CEF91E0309385002093840096BBD3
:107E4000B09BFECF1D9AA8958150A9F7CC24DD24C4
:107E500088248394B5E0AB2EA1E19A2EF3E0BF2EE7
:107E6000A2D0813461F49FD0082FAFD0023811F036
:107E7000013811F484E001C083E08DD089C08234E0
:107E800011F484E103C0853419F485E0A6D080C0E4
:107E9000853579F488D0E82EFF2485D0082F10E0AE
:107EA000102F00270E291F29000F111F8ED06801E7
:107EB0006FC0863521F484E090D080E0DECF843638
:107EC00009F040C070D06FD0082F6DD080E0C81688
:107ED00080E7D80618F4F601B7BEE895C0E0D1E017
:107EE00062D089930C17E1F7F0E0CF16F0E7DF06D8
:107EF00018F0F601B7BEE89568D007B600FCFDCFD4
:107F0000A601A0E0B1E02C9130E011968C91119780
:107F100090E0982F8827822B932B1296FA010C0160
:107F200087BEE89511244E5F5F4FF1E0A038BF0790
:107F300051F7F601A7BEE89507B600FCFDCF97BE46
:107F4000E89526C08437B1F42ED02DD0F82E2BD052
:107F50003CD0F601EF2C8F010F5F1F4F84911BD097
:107F6000EA94F801C1F70894C11CD11CFA94CF0C13
:107F7000D11C0EC0853739F428D08EE10CD085E9AC
:107F80000AD08FE07ACF813511F488E018D01DD067
:107F900080E101D065CF982F8091C00085FFFCCF94
:107FA0009093C60008958091C00087FFFCCF809118
:107FB000C00084FD01C0A8958091C6000895E0E648
:107FC000F0E098E1908380830895EDDF803219F02E
:107FD00088E0F5DFFFCF84E1DECF1F93182FE3DFCA
:107FE0001150E9F7F2DF1F91089580E0E8DFEE27F6
:047FF000FF270994CA
:027FFE00040479
:00000001FF
